{"abi":[{"type":"constructor","inputs":[{"name":"_mchToken","type":"address","internalType":"address"},{"name":"_ngnToken","type":"address","internalType":"address"},{"name":"_pricePerToken","type":"uint256","internalType":"uint256"},{"name":"_startTime","type":"uint256","internalType":"uint256"},{"name":"_endTime","type":"uint256","internalType":"uint256"},{"name":"_minContributionNGN","type":"uint256","internalType":"uint256"},{"name":"_maxContributionNGN","type":"uint256","internalType":"uint256"},{"name":"_tokenHardCap","type":"uint256","internalType":"uint256"}],"stateMutability":"nonpayable"},{"type":"function","name":"buy","inputs":[{"name":"ngnAmount","type":"uint256","internalType":"uint256"}],"outputs":[],"stateMutability":"nonpayable"},{"type":"function","name":"contributions","inputs":[{"name":"","type":"address","internalType":"address"}],"outputs":[{"name":"","type":"uint256","internalType":"uint256"}],"stateMutability":"view"},{"type":"function","name":"endTime","inputs":[],"outputs":[{"name":"","type":"uint256","internalType":"uint256"}],"stateMutability":"view"},{"type":"function","name":"maxContributionNGN","inputs":[],"outputs":[{"name":"","type":"uint256","internalType":"uint256"}],"stateMutability":"view"},{"type":"function","name":"mchToken","inputs":[],"outputs":[{"name":"","type":"address","internalType":"contract IERC20"}],"stateMutability":"view"},{"type":"function","name":"minContributionNGN","inputs":[],"outputs":[{"name":"","type":"uint256","internalType":"uint256"}],"stateMutability":"view"},{"type":"function","name":"ngnToken","inputs":[],"outputs":[{"name":"","type":"address","internalType":"contract IERC20"}],"stateMutability":"view"},{"type":"function","name":"owner","inputs":[],"outputs":[{"name":"","type":"address","internalType":"address"}],"stateMutability":"view"},{"type":"function","name":"pricePerToken","inputs":[],"outputs":[{"name":"","type":"uint256","internalType":"uint256"}],"stateMutability":"view"},{"type":"function","name":"renounceOwnership","inputs":[],"outputs":[],"stateMutability":"nonpayable"},{"type":"function","name":"startTime","inputs":[],"outputs":[{"name":"","type":"uint256","internalType":"uint256"}],"stateMutability":"view"},{"type":"function","name":"tokenHardCap","inputs":[],"outputs":[{"name":"","type":"uint256","internalType":"uint256"}],"stateMutability":"view"},{"type":"function","name":"totalNGNRaised","inputs":[],"outputs":[{"name":"","type":"uint256","internalType":"uint256"}],"stateMutability":"view"},{"type":"function","name":"totalTokensSold","inputs":[],"outputs":[{"name":"","type":"uint256","internalType":"uint256"}],"stateMutability":"view"},{"type":"function","name":"transferOwnership","inputs":[{"name":"newOwner","type":"address","internalType":"address"}],"outputs":[],"stateMutability":"nonpayable"},{"type":"function","name":"updateParams","inputs":[{"name":"_pricePerToken","type":"uint256","internalType":"uint256"},{"name":"_startTime","type":"uint256","internalType":"uint256"},{"name":"_endTime","type":"uint256","internalType":"uint256"}],"outputs":[],"stateMutability":"nonpayable"},{"type":"function","name":"withdrawNGN","inputs":[{"name":"to","type":"address","internalType":"address"}],"outputs":[],"stateMutability":"nonpayable"},{"type":"function","name":"withdrawUnsoldTokens","inputs":[{"name":"to","type":"address","internalType":"address"}],"outputs":[],"stateMutability":"nonpayable"},{"type":"event","name":"NGNWithdrawn","inputs":[{"name":"to","type":"address","indexed":true,"internalType":"address"},{"name":"amount","type":"uint256","indexed":false,"internalType":"uint256"}],"anonymous":false},{"type":"event","name":"OwnershipTransferred","inputs":[{"name":"previousOwner","type":"address","indexed":true,"internalType":"address"},{"name":"newOwner","type":"address","indexed":true,"internalType":"address"}],"anonymous":false},{"type":"event","name":"ParametersUpdated","inputs":[{"name":"newPrice","type":"uint256","indexed":false,"internalType":"uint256"},{"name":"newStartTime","type":"uint256","indexed":false,"internalType":"uint256"},{"name":"newEndTime","type":"uint256","indexed":false,"internalType":"uint256"}],"anonymous":false},{"type":"event","name":"TokensPurchased","inputs":[{"name":"buyer","type":"address","indexed":true,"internalType":"address"},{"name":"ngnAmount","type":"uint256","indexed":false,"internalType":"uint256"},{"name":"tokenAmount","type":"uint256","indexed":false,"internalType":"uint256"}],"anonymous":false},{"type":"event","name":"UnsoldTokensWithdrawn","inputs":[{"name":"to","type":"address","indexed":true,"internalType":"address"},{"name":"amount","type":"uint256","indexed":false,"internalType":"uint256"}],"anonymous":false},{"type":"error","name":"ContributionTooHigh","inputs":[]},{"type":"error","name":"ContributionTooLow","inputs":[]},{"type":"error","name":"InsufficientAllowance","inputs":[]},{"type":"error","name":"InvalidParameters","inputs":[]},{"type":"error","name":"MaxCapExceeded","inputs":[]},{"type":"error","name":"OwnableInvalidOwner","inputs":[{"name":"owner","type":"address","internalType":"address"}]},{"type":"error","name":"OwnableUnauthorizedAccount","inputs":[{"name":"account","type":"address","internalType":"address"}]},{"type":"error","name":"ReentrancyGuardReentrantCall","inputs":[]},{"type":"error","name":"SafeERC20FailedOperation","inputs":[{"name":"token","type":"address","internalType":"address"}]},{"type":"error","name":"SaleNotActive","inputs":[]},{"type":"error","name":"TransferFailed","inputs":[]}],"bytecode":{"object":"0x60c060405234801561000f575f5ffd5b506040516115f23803806115f2833981810160405281019061003191906102f0565b335f73ffffffffffffffffffffffffffffffffffffffff168173ffffffffffffffffffffffffffffffffffffffff16036100a2575f6040517f1e4fbdf700000000000000000000000000000000000000000000000000000000815260040161009991906103b0565b60405180910390fd5b6100b18161019e60201b60201c565b506001808190555083851015806100c85750818310155b156100ff576040517fe523909000000000000000000000000000000000000000000000000000000000815260040160405180910390fd5b8773ffffffffffffffffffffffffffffffffffffffff1660808173ffffffffffffffffffffffffffffffffffffffff16815250508673ffffffffffffffffffffffffffffffffffffffff1660a08173ffffffffffffffffffffffffffffffffffffffff168152505085600281905550846003819055508360048190555082600581905550816006819055508060078190555050505050505050506103c9565b5f5f5f9054906101000a900473ffffffffffffffffffffffffffffffffffffffff169050815f5f6101000a81548173ffffffffffffffffffffffffffffffffffffffff021916908373ffffffffffffffffffffffffffffffffffffffff1602179055508173ffffffffffffffffffffffffffffffffffffffff168173ffffffffffffffffffffffffffffffffffffffff167f8be0079c531659141344cd1fd0a4f28419497f9722a3daafe3b4186f6b6457e060405160405180910390a35050565b5f5ffd5b5f73ffffffffffffffffffffffffffffffffffffffff82169050919050565b5f61028c82610263565b9050919050565b61029c81610282565b81146102a6575f5ffd5b50565b5f815190506102b781610293565b92915050565b5f819050919050565b6102cf816102bd565b81146102d9575f5ffd5b50565b5f815190506102ea816102c6565b92915050565b5f5f5f5f5f5f5f5f610100898b03121561030d5761030c61025f565b5b5f61031a8b828c016102a9565b985050602061032b8b828c016102a9565b975050604061033c8b828c016102dc565b965050606061034d8b828c016102dc565b955050608061035e8b828c016102dc565b94505060a061036f8b828c016102dc565b93505060c06103808b828c016102dc565b92505060e06103918b828c016102dc565b9150509295985092959890939650565b6103aa81610282565b82525050565b5f6020820190506103c35f8301846103a1565b92915050565b60805160a0516111de6104145f395f81816103c901528181610468015281816106ad015261090801525f8181610543015281816105e2015281816106d7015261095401526111de5ff3fe608060405234801561000f575f5ffd5b5060043610610114575f3560e01c80637b1b1de6116100a0578063b9782f9f1161006f578063b9782f9f14610296578063d6465505146102b4578063d96a094a146102d2578063e241a647146102ee578063f2fde38b1461030c57610114565b80637b1b1de61461021e5780638da5cb5b1461023c578063a4d5e74d1461025a578063a8b491891461027857610114565b806342e94c90116100e757806342e94c901461018c57806363b20117146101bc578063715018a6146101da57806372f57f1f146101e457806378e979251461020057610114565b8063063e41d4146101185780632aba1724146101345780633197cbb614610150578063396882561461016e575b5f5ffd5b610132600480360381019061012d9190610def565b610328565b005b61014e60048036038101906101499190610e99565b6103be565b005b6101586104fe565b6040516101659190610ed3565b60405180910390f35b610176610504565b6040516101839190610ed3565b60405180910390f35b6101a660048036038101906101a19190610e99565b61050a565b6040516101b39190610ed3565b60405180910390f35b6101c461051f565b6040516101d19190610ed3565b60405180910390f35b6101e2610525565b005b6101fe60048036038101906101f99190610e99565b610538565b005b610208610678565b6040516102159190610ed3565b60405180910390f35b61022661067e565b6040516102339190610ed3565b60405180910390f35b610244610684565b6040516102519190610efb565b60405180910390f35b6102626106ab565b60405161026f9190610f6f565b60405180910390f35b6102806106cf565b60405161028d9190610ed3565b60405180910390f35b61029e6106d5565b6040516102ab9190610f6f565b60405180910390f35b6102bc6106f9565b6040516102c99190610ed3565b60405180910390f35b6102ec60048036038101906102e79190610f88565b6106ff565b005b6102f66109f4565b6040516103039190610ed3565b60405180910390f35b61032660048036038101906103219190610e99565b6109fa565b005b610330610a7e565b808210610369576040517fe523909000000000000000000000000000000000000000000000000000000000815260040160405180910390fd5b8260028190555081600381905550806004819055507f4dd522c050b46ef5e852ea87e7cd136b049dcb37740ad38386fbbb5cd30aa9248383836040516103b193929190610fb3565b60405180910390a1505050565b6103c6610a7e565b5f7f000000000000000000000000000000000000000000000000000000000000000073ffffffffffffffffffffffffffffffffffffffff166370a08231306040518263ffffffff1660e01b81526004016104209190610efb565b602060405180830381865afa15801561043b573d5f5f3e3d5ffd5b505050506040513d601f19601f8201168201806040525081019061045f9190610ffc565b90506104ac82827f000000000000000000000000000000000000000000000000000000000000000073ffffffffffffffffffffffffffffffffffffffff16610b059092919063ffffffff16565b8173ffffffffffffffffffffffffffffffffffffffff167f7e86604b43eb0ab1c0c0e6d2230320c966b5647510e10fcf94f181764cf7c062826040516104f29190610ed3565b60405180910390a25050565b60045481565b60075481565b600a602052805f5260405f205f915090505481565b60085481565b61052d610a7e565b6105365f610b84565b565b610540610a7e565b5f7f000000000000000000000000000000000000000000000000000000000000000073ffffffffffffffffffffffffffffffffffffffff166370a08231306040518263ffffffff1660e01b815260040161059a9190610efb565b602060405180830381865afa1580156105b5573d5f5f3e3d5ffd5b505050506040513d601f19601f820116820180604052508101906105d99190610ffc565b905061062682827f000000000000000000000000000000000000000000000000000000000000000073ffffffffffffffffffffffffffffffffffffffff16610b059092919063ffffffff16565b8173ffffffffffffffffffffffffffffffffffffffff167f328a7cca57e89d3b52f56190ef4e06d91c987e3ef2640db3be95d65f818e2d128260405161066c9190610ed3565b60405180910390a25050565b60035481565b60025481565b5f5f5f9054906101000a900473ffffffffffffffffffffffffffffffffffffffff16905090565b7f000000000000000000000000000000000000000000000000000000000000000081565b60055481565b7f000000000000000000000000000000000000000000000000000000000000000081565b60095481565b610707610c45565b60035442108061071957506004544210155b15610750576040517fb7b2409700000000000000000000000000000000000000000000000000000000815260040160405180910390fd5b60055481101561078c576040517fd8eb236a00000000000000000000000000000000000000000000000000000000815260040160405180910390fd5b60065481600a5f3373ffffffffffffffffffffffffffffffffffffffff1673ffffffffffffffffffffffffffffffffffffffff1681526020019081526020015f20546107d89190611054565b1115610810576040517fbca119a600000000000000000000000000000000000000000000000000000000815260040160405180910390fd5b5f600254670de0b6b3a7640000836108289190611087565b61083291906110f5565b9050600754816008546108459190611054565b111561087d576040517f5abcf81000000000000000000000000000000000000000000000000000000000815260040160405180910390fd5b81600a5f3373ffffffffffffffffffffffffffffffffffffffff1673ffffffffffffffffffffffffffffffffffffffff1681526020019081526020015f205f8282546108c99190611054565b925050819055508060085f8282546108e19190611054565b925050819055508160095f8282546108f99190611054565b9250508190555061094d3330847f000000000000000000000000000000000000000000000000000000000000000073ffffffffffffffffffffffffffffffffffffffff16610c8b909392919063ffffffff16565b61099833827f000000000000000000000000000000000000000000000000000000000000000073ffffffffffffffffffffffffffffffffffffffff16610b059092919063ffffffff16565b3373ffffffffffffffffffffffffffffffffffffffff167f8fafebcaf9d154343dad25669bfa277f4fbacd7ac6b0c4fed522580e040a0f3383836040516109e0929190611125565b60405180910390a2506109f1610d0d565b50565b60065481565b610a02610a7e565b5f73ffffffffffffffffffffffffffffffffffffffff168173ffffffffffffffffffffffffffffffffffffffff1603610a72575f6040517f1e4fbdf7000000000000000000000000000000000000000000000000000000008152600401610a699190610efb565b60405180910390fd5b610a7b81610b84565b50565b610a86610d16565b73ffffffffffffffffffffffffffffffffffffffff16610aa4610684565b73ffffffffffffffffffffffffffffffffffffffff1614610b0357610ac7610d16565b6040517f118cdaa7000000000000000000000000000000000000000000000000000000008152600401610afa9190610efb565b60405180910390fd5b565b610b7f838473ffffffffffffffffffffffffffffffffffffffff1663a9059cbb8585604051602401610b3892919061114c565b604051602081830303815290604052915060e01b6020820180517bffffffffffffffffffffffffffffffffffffffffffffffffffffffff8381831617835250505050610d1d565b505050565b5f5f5f9054906101000a900473ffffffffffffffffffffffffffffffffffffffff169050815f5f6101000a81548173ffffffffffffffffffffffffffffffffffffffff021916908373ffffffffffffffffffffffffffffffffffffffff1602179055508173ffffffffffffffffffffffffffffffffffffffff168173ffffffffffffffffffffffffffffffffffffffff167f8be0079c531659141344cd1fd0a4f28419497f9722a3daafe3b4186f6b6457e060405160405180910390a35050565b600260015403610c81576040517f3ee5aeb500000000000000000000000000000000000000000000000000000000815260040160405180910390fd5b6002600181905550565b610d07848573ffffffffffffffffffffffffffffffffffffffff166323b872dd868686604051602401610cc093929190611173565b604051602081830303815290604052915060e01b6020820180517bffffffffffffffffffffffffffffffffffffffffffffffffffffffff8381831617835250505050610d1d565b50505050565b60018081905550565b5f33905090565b5f5f60205f8451602086015f885af180610d3c576040513d5f823e3d81fd5b3d92505f519150505f8214610d55576001811415610d70565b5f8473ffffffffffffffffffffffffffffffffffffffff163b145b15610db257836040517f5274afe7000000000000000000000000000000000000000000000000000000008152600401610da99190610efb565b60405180910390fd5b50505050565b5f5ffd5b5f819050919050565b610dce81610dbc565b8114610dd8575f5ffd5b50565b5f81359050610de981610dc5565b92915050565b5f5f5f60608486031215610e0657610e05610db8565b5b5f610e1386828701610ddb565b9350506020610e2486828701610ddb565b9250506040610e3586828701610ddb565b9150509250925092565b5f73ffffffffffffffffffffffffffffffffffffffff82169050919050565b5f610e6882610e3f565b9050919050565b610e7881610e5e565b8114610e82575f5ffd5b50565b5f81359050610e9381610e6f565b92915050565b5f60208284031215610eae57610ead610db8565b5b5f610ebb84828501610e85565b91505092915050565b610ecd81610dbc565b82525050565b5f602082019050610ee65f830184610ec4565b92915050565b610ef581610e5e565b82525050565b5f602082019050610f0e5f830184610eec565b92915050565b5f819050919050565b5f610f37610f32610f2d84610e3f565b610f14565b610e3f565b9050919050565b5f610f4882610f1d565b9050919050565b5f610f5982610f3e565b9050919050565b610f6981610f4f565b82525050565b5f602082019050610f825f830184610f60565b92915050565b5f60208284031215610f9d57610f9c610db8565b5b5f610faa84828501610ddb565b91505092915050565b5f606082019050610fc65f830186610ec4565b610fd36020830185610ec4565b610fe06040830184610ec4565b949350505050565b5f81519050610ff681610dc5565b92915050565b5f6020828403121561101157611010610db8565b5b5f61101e84828501610fe8565b91505092915050565b7f4e487b71000000000000000000000000000000000000000000000000000000005f52601160045260245ffd5b5f61105e82610dbc565b915061106983610dbc565b925082820190508082111561108157611080611027565b5b92915050565b5f61109182610dbc565b915061109c83610dbc565b92508282026110aa81610dbc565b915082820484148315176110c1576110c0611027565b5b5092915050565b7f4e487b71000000000000000000000000000000000000000000000000000000005f52601260045260245ffd5b5f6110ff82610dbc565b915061110a83610dbc565b92508261111a576111196110c8565b5b828204905092915050565b5f6040820190506111385f830185610ec4565b6111456020830184610ec4565b9392505050565b5f60408201905061115f5f830185610eec565b61116c6020830184610ec4565b9392505050565b5f6060820190506111865f830186610eec565b6111936020830185610eec565b6111a06040830184610ec4565b94935050505056fea264697066735822122072f975e7edbbf36ea85e519783a209f4220ecebf4ec4d69b14441d871536bcaa64736f6c634300081e0033","linkReferences":{}},"methodIdentifiers":{"buy(uint256)":"d96a094a","contributions(address)":"42e94c90","endTime()":"3197cbb6","maxContributionNGN()":"e241a647","mchToken()":"b9782f9f","minContributionNGN()":"a8b49189","ngnToken()":"a4d5e74d","owner()":"8da5cb5b","pricePerToken()":"7b1b1de6","renounceOwnership()":"715018a6","startTime()":"78e97925","tokenHardCap()":"39688256","totalNGNRaised()":"d6465505","totalTokensSold()":"63b20117","transferOwnership(address)":"f2fde38b","updateParams(uint256,uint256,uint256)":"063e41d4","withdrawNGN(address)":"2aba1724","withdrawUnsoldTokens(address)":"72f57f1f"},"id":31}